:1000000000800020BD010000D10900008D09000022
:100010008D0900008D0900008D0900008D09000088
:100020008D0900008D0900008D090000D109000034
:10003000D10900008D090000551700005917000074
:10004000D1090000D1090000D1090000D109000048
:10005000D1090000D1090000D1090000D109000038
:10006000D1090000D1090000D1090000D109000028
:10007000D1090000D1090000D1090000D109000018
:10008000D1090000D1090000D1090000D109000008
:10009000D1090000D1090000D1090000D1090000F8
:1000A000F506000001070000D1090000D109000099
:1000B000D1090000D1090000D1090000D1090000D8
:1000C000D1090000D1090000D1090000D1090000C8
:1000D000D1090000D1090000D1090000D1090000B8
:1000E000D1090000D1090000D1090000D1090000A8
:1000F000D1090000D1090000D1090000D109000098
:10010000D1090000D1090000D1090000D109000087
:10011000D1090000D1090000D1090000D109000077
:10012000D1090000D1090000D1090000D109000067
:10013000D1090000D1090000D1090000D109000057
:10014000D1090000D1090000D1090000D109000047
:10015000D1090000D1090000D1090000D109000037
:10016000D1090000210D0000D1090000D1090000D3
:10017000D1090000D1090000D1090000D109000017
:10018000D1090000D1090000D1090000D109000007
:10019000D1090000D1090000D1090000D1090000F7
:1001A000D1090000D1090000D1090000D1090000E7
:1001B000D1090000D1090000D1090000574B4CF2D1
:1001C000205210B5DA814DF62812DA8100BF00BF47
:1001D00000F002FC524B4FF010621A63514A9A63CE
:1001E000514ADA63514A136913F4807303D153619E
:1001F0004FF4A85313614E4B9A78110703D59A78A0
:1002000042F008029A704B4B4B482A221A704B4B13
:10021000DA1C121AC11E22F00302994288BF002282
:10022000474900F0DFFA474B4748DA1C121AC11E53
:1002300022F00302994288BF0022002101F0FCFA5B
:10024000424943484FF4DE7200F0CCFA414B424A37
:10025000802103F8011B9342FBD14FF0E0233C4A7D
:10026000C3F8082D3D4B8A221A70A3F5805324222F
:100270005A70A0221A709A799207FCD59A79D406FE
:10028000FCD4374B9A7902F00C02082AFAD10522E5
:100290001A7143225A719A799006FCD5304A9379A3
:1002A0005906FCD51E4B4FF08171596405219964A4
:1002B00020211170917901F00C010C29FAD1294A01
:1002C0005A604FF0E023284A5A6100229A610722BF
:1002D0001A61264AC3F8202D62B600F04BFC134B7E
:1002E0005B69DA0705D5224800F038FC214B224A29
:1002F000DA61224B1B785B0609D51E4C1E4BE26966
:100300009A4204D11A4800F029FC0023E36100F06E
:1003100069FB01F0E3FA00F05DFAFEE7002005401A
:1003200000800440823F04000100002B00D0034005
:1003300000D0074000E007401C87FF1F2C8BFF1FE9
:10034000F81B0000148EFF1F2C8BFF1F0000000005
:100350000082FF1F00E400E05FE400E00050064080
:1003600000400640C01005003F1901000000202099
:10037000CB00906600E00340A5C3945A00F007400C
:10038000FFFFFFFFFFFFFFFFFFFFFFFFFFFFFFFF7D
:10039000FFFFFFFFFFFFFFFFFFFFFFFFFFFFFFFF6D
:1003A000FFFFFFFFFFFFFFFFFFFFFFFFFFFFFFFF5D
:1003B000FFFFFFFFFFFFFFFFFFFFFFFFFFFFFFFF4D
:1003C000FFFFFFFFFFFFFFFFFFFFFFFFFFFFFFFF3D
:1003D000FFFFFFFFFFFFFFFFFFFFFFFFFFFFFFFF2D
:1003E000FFFFFFFFFFFFFFFFFFFFFFFFFFFFFFFF1D
:1003F000FFFFFFFFFFFFFFFFFFFFFFFFFFFFFFFF0D
:10040000FFFFFFFFFFFFFFFFFFFFFFFFDEF9FFFF23
:100410000548064B1B1AD90F01EBA301491002D066
:10042000034B03B1184770472C8BFF1F2C8BFF1F0A
:100430000000000008B5054B1BB105490548AFF3A6
:100440000080BDE80840FFF7E3BF00BF00000000E8
:100450002C8BFF1FF81B000090F8603090F8612093
:100460009A4205D95A1C034480F86020187E7047D0
:100470004FF0FF30704700BF704700BF704700BFAC
:100480000020704790F8612090F86000101A7047C3
:1004900090F8603090F861209A4286BFC018007EC4
:1004A0004FF0FF30704700BF704700BFB0F8AE306C
:1004B0002BB190F8AD30482B03D9012343600020C5
:1004C0007047C218013380F8AD30012082F8631004
:1004D000704700BF38B5B0F8AE40A4B190F8AD3069
:1004E000C3F14904A24284BF01224260054698BF7D
:1004F000144663301844224600F074F995F8AD3084
:10050000234485F8AD30204638BD00BF70B5164C89
:100510002369DB7813F0200514D094F8B030013350
:10052000DBB2012B84F8B03002D894F8AF3043B975
:10053000636994F8B1201344BDE87040187A00F064
:10054000C9BA70BD636994F8B1201344187A00F0F9
:10055000C1FAD4F8B830002BF3D094F8610084F8D5
:100560006050BDE870401847DC88FF1F70B5164C1E
:100570002369DB7813F0200514D094F8B0300133F0
:10058000DBB2012B84F8B03002D894F8AF3043B915
:10059000636994F8B1201344BDE87040187A00F004
:1005A00099BA70BD636994F8B1201344187A00F0C9
:1005B00091FAD4F8B830002BF3D094F8610084F8A5
:1005C0006050BDE8704018472088FF1F10B50369D0
:1005D000D978CAB2C906044622D510215006D9706E
:1005E0001DD512F0040250D03D49D4F8B4200023A8
:1005F0000B7084F8AD30002A5BD0904794F8AD3092
:10060000002B56D02369D0229A70236994F8632076
:100610001A712369012284F8AC200222DA7010BD1D
:100620005106DED4997811F0100117D12D4A80F8C7
:10063000B01090424FD02C4A904241D094F86110B3
:100640001A794729D2B2E8D8254800780028E4D0A2
:10065000481C214484F861000A76DEE712F00102AA
:1006600020D190F8AC1090F8AD00884281BF4A1CB0
:10067000091984F8AC2091F863201A712369D022FB
:100680009A7023690222DA70C9E7236984F861202D
:10069000C0219970124A2369012111700222187930
:1006A000DA70BCE7C0229A7003691A790222DA7004
:1006B000B5E70122002384F8AD2084F86330A1E778
:1006C000436990F8B120094913440322187A00F0D5
:1006D0008DF92369B2E7436990F8B1200449F3E743
:1006E000448BFF1F2088FF1FDC88FF1F0D050000C3
:1006F0006D0500000148FFF769BF00BF2088FF1F9C
:100700000148FFF763BF00BFDC88FF1F2A4B2B4A5D
:100710006020E1211870597013782948082B34D0D3
:100720000A2B20D00C2B274B0CBF15213D21122268
:100730008160C2609960DA60234B21491B78214AAD
:10074000CBB101230B621362204B1D491B781D4A5C
:10075000012B13D9042B1BD884234B6253621C4BEF
:1007600001221A707047174B192113228160C26051
:100770009960DA60E0E70B621362E5E780234B6281
:100780005362134B01221A7070470E4B0121ECE7A4
:10079000082B06D885234B6253620D4B01221A7039
:1007A0007047102B94BF862387234B625362084BFC
:1007B00001221A70704700BF004007409889FF1F50
:1007C00000B0034000B00B40458BFF1F9989FF1F0D
:1007D000468BFF1F08B5FFF74FFEFFF74FFE00F0F7
:1007E0001FFFFAE701B441EA000313F003036FD1DE
:1007F000403A41D351F8043B40F8043B51F8043BE4
:1008000040F8043B51F8043B40F8043B51F8043BEA
:1008100040F8043B51F8043B40F8043B51F8043BDA
:1008200040F8043B51F8043B40F8043B51F8043BCA
:1008300040F8043B51F8043B40F8043B51F8043BBA
:1008400040F8043B51F8043B40F8043B51F8043BAA
:1008500040F8043B51F8043B40F8043B51F8043B9A
:1008600040F8043B51F8043B40F8043B51F8043B8A
:1008700040F8043B403ABDD2303211D351F8043B2A
:1008800040F8043B51F8043B40F8043B51F8043B6A
:1008900040F8043B51F8043B40F8043B103AEDD2D9
:1008A0000C3205D351F8043B40F8043B043AF9D22A
:1008B00004320AD0D2071CBF11F8013B00F8013BFB
:1008C00003D30B7803704B78437001BC704700BFB3
:1008D0000C2A4AD310F0030311D0C3F10403D21A37
:1008E000DB071CBF11F8013B00F8013B07D311F8EF
:1008F000013B00F8013B11F8013B00F8013B11F00E
:1009000003033FF475AF30B4043AC91AC3F1040CC1
:1009100051F8044B022B19D0032B0BD0240A51F8A9
:10092000043B1D0644EA050440F8044B1C46043A07
:10093000F4D216E0240E51F8043B1D0244EA0504EB
:1009400040F8044B1C46043AF4D20AE0240C51F857
:10095000043B1D0444EA050440F8044B1C46043AD9
:10096000F4D20432B1EB0C0130BC043AA0D3013A0A
:1009700011F8013B00F8013BF9D20B7803704B787A
:1009800043708B78837001BC704700BF08B50F4C73
:10099000636B58030DD4636B59050FD4636B1A0551
:1009A00011D4636BDB04F3D500F012F8636B5803CA
:1009B000F1D500F0B5F9636B5905EFD500F008F8F3
:1009C000636B1A05EDD500F003F8EAE700800440F8
:1009D00008B5FFF7DBFF00BF014B10221A807047FC
:1009E00000200540704700BF704700BF212835D860
:1009F000042A33D830B42A4B2A4D53F8223005EB61
:100A0000C0021B045468226812F4E06239D0264AFE
:100A10002648C2F89C012648C2F8A0012548C2F821
:100A2000A4012548C2F8A8012448C2F8AC0104F189
:100A30004042A2F592207C2811D8214872B6226843
:100A400022F4702222601343C4F3840243F08073C3
:100A500040F82210236062B630BC70477047A2F5A0
:100A600094207C2815D9A2F596207C2813D9A2F5CC
:100A700098207C2811D9A2F59A227C2AECD811481A
:100A8000DCE755F8300080F880224FF48072226055
:100A9000BDE70D48D2E70D48D0E70D48CEE700BFCF
:100AA000601A0000741A00000082FF1FED87FF1F0C
:100AB000B987FF1F8587FF1F5187FF1F1D87FF1FF6
:100AC0009C89FF1F748AFF1FD489FF1F248AFF1F80
:100AD000548AFF1F1A4B03EBC0035A6802F14043CC
:100AE000A3F592217C2905D9A3F594217C2914D85A
:100AF000144900E0144910B472B61368134C23F083
:100B00008773C2F3840023F4803343F0807313604F
:100B100041F8204062B610BC7047A3F596217C29AD
:100B200009D9A3F598217C2907D9A3F59A237C2B11
:100B300005D80749DFE70749DDE70749DBE77047E5
:100B4000741A0000D489FF1F9C89FF1FE909000067
:100B5000748AFF1F248AFF1F548AFF1F034B002241
:100B600010215A615A6018605961704700D00340E3
:100B7000704700BFF0B54FF0E0244FF400054FF090
:100B8000807CC4F80851C4F808C14FF0007CC4F858
:100B900008C11D4A1D481E494FF0806CC4F808C1A9
:100BA0002823002748F6FF7609254FF0006CC4F88B
:100BB00008C183B057609660D3605361D3615362BC
:100BC000D3625363D3635364156047608660C36028
:100BD000436105604F608E60CB604B610D60FFF735
:100BE00095FDFFF7C5FF0B4C23680093009B132B6B
:100BF000FAD900F04FFC23680193019BB3F5967F6F
:100C0000F9D303B0F0BD00BF008003400090034063
:100C100000800B40488BFF1F10B472B6194A1A4C63
:100C2000042312F8011B090743F0010C05D554F801
:100C3000331061B154F83C10B9B10433142BF0D126
:100C400062B6124B00221A7010BC00F087BC0F492C
:100C500004EBC302083050600A780D4844F83300B2
:100C6000013A0A7062B610BC7047084A094904EBA1
:100C7000CC0308305860137844F83C10013B1370E3
:100C800062B6F0E7DC1B00000080FF1F348CFF1F02
:100C900088004000C8004000421E032A0ED81C4BAA
:100CA000400140F0100010B4034472B6194CA05C2F
:100CB00003281CD8DFE800F013150318704705203F
:100CC000A05413F0080F088814BFC82288220831E6
:100CD00042EA004259601A6062B610BC70470320B5
:100CE000EEE708330220EBE708330420E8E70A4B7D
:100CF00053F8220038B1094B53F82200416043F801
:100D0000221062B6E9E743F82210044BF7E700BF70
:100D10000080FF1F248CFF1F048CFF1F148CFF1FFB
:100D20002DE9F04FDFF8CCA2DFF8CCB285B03DE082
:100D3000B24D9E0805EBC607013A796813F0080327
:100D4000D4B2A1F1080040F0B88055F836204FEA3F
:100D5000124C120C21F808CC00F0A78021F8063CB8
:100D600041F8043CA64B53F82420002A00F00182ED
:100D7000A44B53F82420506043F82400A24B33F8CE
:100D80001420944423F814C000F0C8FB002800F09D
:100D9000E98117F0080F9D4B00F1080018BF5B4672
:100DA000786045F8363008238AF880309AF8803029
:100DB0005907DCB21BD5964B1B78ABB195490A7825
:100DC00002F0FF032AB1013BDBB20B70002B00F0F5
:100DD000468391490A7802F0FF032AB1013BDBB256
:100DE0000B70002B00F0EB8104238AF8803014F0A4
:100DF000080200F0CC819AF89020D3B2120997D162
:100E0000DFF8F8919B0809EBC30459F833006468D4
:100E1000C0F3830009287CD00FD80138012808D8F6
:100E20007E4A158842F22100854200F0FB8149F894
:100E300033B001238AF89430B5E70D28F9D1D4E90D
:100E40000007774D49F833B0744E764CC9F810203E
:100E500083B240F2816CC9F818202A6063454FF0D4
:100E60000102C6E90007227000F2FF80B3F5D06FDF
:100E700080F0CB82B3F5817F00F0268240F2DE80E5
:100E800040F2023293427BD107F07F07042F00F239
:100E90000881020C40F00581634911F8273043F0C6
:100EA000020301F82730134670E017F0080F574B84
:100EB00018BF5B4645F8363075E700F04FFB5B49DD
:100EC0005B4A51F82430002B00F05781586841F8F4
:100ED0002400115D03F108007860032905D8DFE8DC
:100EE00001F0120F1502042111551A8817F0080F8E
:100EF00014BFC823882343EA024345F8363052E73B
:100F000002211155F1E703211155EEE70521115595
:100F1000EBE7434D2A683AB34649424C0F884648AE
:100F200094F800E00678402F3B4628BF4023BEF1EE
:100F3000000F8EF0010E84F800E046F0020486F007
:100F40000106067009EBC400426014BFC820882067
:100F500040EA03401A44FB1A9BB249F834000B8064
:100F6000002B00F036812A602C4B1A88B2F5A06F56
:100F70007FF45FAF9A788AF8982000225A7058E779
:100F8000B3F5A06F40F08D8000221346B6F806C07E
:100F90002948944528BF944667460278402F28BFC9
:100FA000402742F0020E3E0409EBCE0846F0C80688
:100FB000C8F8043049F83E6000263B442670BCEB7C
:100FC000070782F00106067040F01181BCF13F0F67
:100FD0004FF0010509D946F00206027009EBC6027E
:100FE00025705360882349F8363001238AF89430FD
:100FF0001FE700BF00200740C80040000080FF1F1F
:10100000DC8BFF1FEC8BFF1F2C8CFF1F8800400028
:10101000288CFF1F298CFF1F548CFF1FFC8BFF1F88
:10102000D08BFF1FCD8BFF1FC0200740048CFF1FFC
:10103000248CFF1FCE8BFF1FCC8BFF1F802B00F05B
:101040008B81822B2DD107F07F07042F29D8A74A47
:1010500000231380A64B13F827309F0740F1FC8133
:1010600001231370A14B022290E742F2210C634549
:10107000BBD01DD942F2212293420DD1BFB2002F25
:1010800082D19C4B1A689C4B1A609C4BC0F3074062
:1010900000221870134679E742F2213293423FF45E
:1010A00073AF0F238AF8C03001238AF89430C0E66A
:1010B000B3F5086F00F04A81B3F5106FF1D1904B92
:1010C000C0F307400425187059F835301A0606D4C5
:1010D0000135142D0CD059F835301A06F8D509EB26
:1010E000C50301355868083800F038FA142DF2D1DC
:1010F000844A854B0292854A0192854E854ADFF8E3
:1011000018820394009200251C4656F8047B2FB1E8
:1011100038467F6800F022FA002FF9D1009BD8F8FA
:10112000007043F8045B46F8045C00932FB1384626
:101130007F6800F013FA002FF9D1029B48F8045B96
:1011400043F8045B0293019B23F8025B019323782D
:10115000023B032B00F20981DFE813F03F01040199
:101160003F0104016D4A45F83600137801331370CE
:1011700019E643F82400674BFEE5115D022926D0ED
:101180007FF611AE03291DD1012313550BE6E007AD
:101190006ED4210621D4A20708D5614B93F888208C
:1011A0000221D2B283F8882083F88010E30603D5A9
:1011B0005B4B102283F8802005B0BDE8F08F00F073
:1011C0000BFA11E617F0080F14BF0323022313557F
:1011D000E9E53F2F98BF0022C5E6514B80220D2143
:1011E00083F8C01083F88020A207DFD5D5E746F04A
:1011F00002060270402F09EBC6003A4628BF402283
:1012000043601004134440F088000121BA1A49F8E1
:101210003600217055D02B60424B1A8001238AF88A
:10122000943006E692885AB93F4AE51D14F8011B2E
:1012300002F8011FAC42F9D13C4A1268862A3CD020
:101240003B4C3C4825780278002D85F0010525703F
:1012500042F0020482F00102027009EBC4024FF076
:101260000000506014BFC822882249F83420DEE50F
:101270002B4B30483049314C022583F89450027092
:101280002F480C602F4D48608C600D24CD60FF20EE
:101290000A618A6183F8C04001219F2483F8880095
:1012A00083F8800083F8982083F88C0083F88440CA
:1012B00083F8941005B0BDE8F08F234A0F2010701A
:1012C000BEE73F2FA7D890E607F07F07042F3FF631
:1012D000E8AE000C7FF4E5AE054A12F8273023F0A3
:1012E000020302F82730002213464FE6D48BFF1F7B
:1012F000C0200740488BFF1F508CFF1F4C8CFF1FE6
:10130000288CFF1F148CFF1F248CFF1F2C8CFF1FA9
:10131000DC8BFF1FEC8BFF1F048CFF1F348CFF1F27
:1013200000200740CE8BFF1F438CFF1F448CFF1F04
:10133000CD8BFF1FCC8BFF1F0080FF1F880040005C
:101340004C8BFF1F8C8BFF1F298CFF1F484B49497B
:101350001B780B700B4619E6464A00231380454B59
:10136000022213E64FF001032370434BB34204F112
:1013700001047FF4CAAE414E039CDFF80481414F63
:1013800000233370042518F8013B3F4AAB541B0778
:1013900025D445F0020145F0030204350023142D45
:1013A00049F8313049F83230EDD1384F25783A7864
:1013B00042F0020009EBC00C85F00106CCF80430C5
:1013C000002D4DD1882382F0010226703A7049F831
:1013D000303001238AF894302BE52570C5E700F002
:1013E0009DF8002832D009EBC5030830586049F851
:1013F000357000F093F808B345F0010309EBC30220
:101400000830506049F833B0C3E7214A5368002BD5
:101410003FF447AE000CBFB204E013690C32002B5E
:101420003FF43FAE11888142F7D15188B942F4D1DF
:10143000000A03280CBF1A781289A7E53378013314
:10144000337045F0010349F83300A2E7337849F8D7
:10145000350001333370CCE7064B022296E500BE1F
:101460002670C82382F001063E7049F83030BCE592
:10147000288CFF1FD48BFF1FEC8BFF1F348CFF1FAA
:10148000DC1B000088004000C0200740CC8BFF1F01
:10149000881B000070B500F069F900231A4A19464C
:1014A00042F8331002EBC3000133142B4160F7D133
:1014B000164C174B606B174D40F480206063C2F3ED
:1014C000072483F89C40144CFF204FF0010CC2F31A
:1014D0000746120E83F8B0604FF0E02E83F8B42078
:1014E00083F8800083F88800187483F894C0217012
:1014F00083F884C0702385F849304FF400721023BC
:10150000CEF80821237270BD0080FF1F00800440C8
:101510000020074000E400E00021074072B60D49BA
:101520000B68B3FA83F00B2810DC4FF00042C24086
:1015300023EA02030B6062B6074A00EBC000C10059
:1015400002EBC000002353504360704762B6002096
:10155000704700BF7C8AFF1FBC83FF1F0E4BC31A5E
:10156000B3F5587F10D20D4A127872B972B60C4A90
:101570000C49A2FB032308684FF000421B0922FA22
:1015800003F303430B6062B67047074A1278002AE0
:10159000ECD0FFF741BB00BFBC83FF1F348CFF1FA3
:1015A000398EE3387C8AFF1F288CFF1F084B094ABD
:1015B0001B6810B594881BB11A885B88D31A1C4429
:1015C0000CB1204610BD00F02BF8204610BD00BF26
:1015D000388CFF1F2C8CFF1F38B50E4B1B7853B96E
:1015E0000D4C216841B103F0FF054B880B800420AE
:1015F000FFF752FB256038BDFFF790FF014620B191
:10160000BDE838400420FFF747BB044B01221A70A5
:1016100038BD00BF3C8CFF1F408CFF1F548CFF1F48
:101620002DE9F843324E337863B1324F3A784AB9F4
:101630000122D9073A7043D49A0726D400225B07C7
:101640003A7001D4BDE8F8832B4B1A68002AF9D010
:10165000EFF30582002AF5D1EFF3108572B6186812
:1016600000283AD0254C2178002936D142691A60E9
:1016700001232370002A37D0916105B962B6002595
:101680008368457798472570DCE7DFF8748098F821
:101690000020002AD2D00025DFF868902B4659F8A8
:1016A0002340236820461B690135984708B1236908
:1016B000984798F80020EBB29A42F0D83378BDE70B
:1016C000FFF774FF68B9104B1B780BB93378B3E799
:1016D000337803F0FE033370AEE7002DB2D162B66B
:1016E000B0E700F041F8EEE7084B1A60C5E700BF2D
:1016F000808AFF1F558CFF1F588CFF1F648CFF1FB3
:10170000788CFF1F6C8CFF1F841B0000688CFF1FF0
:1017100070B5EFF3108272B60C4C206880B10C4E9D
:1017200000254369236073B19D6102B962B6836885
:1017300045779847EFF3108272B620680028F0D101
:1017400002B962B670BD3360EFE700BF608CFF1F67
:101750005C8CFF1FFFF7DCBF024A13680133136084
:10176000704700BF488BFF1F704700BF10B584B0A3
:1017700072B6174A702441200F2180231470D07153
:101780009171137013781B06FCD5906862B6114BEB
:10179000114C984238BF00EB800001A938BF4000CF
:1017A0000A2200F01BF801A92046002311F8012BA2
:1017B00001333AB10A2B20F8022FF7D116232370F8
:1017C00004B010BD5B00DBB2237004B010BD00BFDD
:1017D0000000024080969800108BFF1F01F1FF3C33
:1017E00070B56546002401E070460134B0FBF2FE9E
:1017F00002FB1E03092B03F130068ABF3733F3B215
:10180000DBB2904205F8013FEED2631C0022CA54BD
:10181000C8187CB162461CF8015F10F801ED8CF825
:1018200000E0A1EB0C030232013B521A23449A421E
:101830000570EFDB084670BD830730B548D0541EF5
:10184000002A3FD0CAB2034601E0013C3AD303F874
:10185000012B9D07F9D1032C2DD9CDB245EA0525E1
:101860000F2C45EA054536D9A4F1100222F00F0CE1
:1018700003F1200EE6444FEA121C03F1100242E984
:10188000045542E9025510327245F8D10CF10102BB
:1018900014F00C0F03EB021204F00F0C13D0ACF198
:1018A000040323F003030433134442F8045B93421C
:1018B000FBD10CF003042CB1C9B21C4403F8011B8A
:1018C0009C42FBD130BD64461346002CF4D1F9E7AD
:1018D00003461446BFE71A46A446E0E770B50D4E2E
:1018E0000D4D761BB61006D0002455F8043B01348C
:1018F0009847A642F9D1094E094D761B00F070F9C0
:10190000B61006D0002455F8043B01349847A6428F
:10191000F9D170BDEC1B0000EC1B0000F41B0000B3
:10192000EC1B0000704700BF704700BF024B13B1B3
:10193000024800F005B87047000000004D19000093
:10194000002301461A46184600F014B838B5074D72
:10195000074C2C1BA41005D0013C55F8043D9847BA
:10196000002CF9D1BDE8384000F044B90000000077
:10197000000000002DE9F047DFF874A00646DAF811
:10198000000098460F469146FFF7CCFF194B1C68A4
:1019900024B365681F2D24DC5EB96B1C0235DAF8B0
:1019A0000000636044F82570FFF7BEFF0020BDE82B
:1019B000F08704EB85010123C1F88890D4F88821D1
:1019C000AB401A43022EC4F88821C1F80881E4D143
:1019D000D4F88C211A43C4F88C21DEE7064C1C6035
:1019E000D7E7DAF80000FFF79FFF4FF0FF30DEE7A0
:1019F000288BFF1F808CFF1F848CFF1F34800440C6
:101A0000800000001EFFFFFFFF02000000001DFF1E
:101A1000FFFFFF02000000001900000034800440B6
:101A2000400000001211FFFFFF020200000013102F
:101A3000FFFFFF020200000018000000000000008D
:101A400000000000AD040000D50400008104000087
:101A5000A90400008504000059040000910400005E
:101A6000080000000C0000000A000000090000004F
:101A70000B0000004008FE4340A004404408FE4321
:101A800044A004400018FE4300C004403000FE4360
:101A9000309004403400FE43349004401C18FE4350
:101AA0001CC004401018FE4310C004400818FE4338
:101AB00008C004400C18FE430CC004400C10FE4348
:101AC0000CB004401010FE4310B004401810FE4348
:101AD00018B004401C10FE431CB004401410FE4318
:101AE00014B004400418FE4304C004400010FE4338
:101AF00000B004400008FE4300A004400408FE4378
:101B000004A004400C08FE430CA004400808FE4357
:101B100008A004401418FE4314C004401818FE43E3
:101B200018C004400410FE4304B004400810FE43F3
:101B300008B004401400FE43149004404C08FE43D7
:101B40004CA004400420FE4304D004402410FE4373
:101B500024B004402010FE4320B004402810FE436F
:101B600028B004402C10FE432CB004400020FE435B
:101B700000D004404808FE4348A004401000FE4343
:101B80001090044000FFFFFF00010000C88AFF1F03
:101B90001200000000020000848AFF1F43000000C2
:101BA00000030000DC8AFF1F00000000010309049D
:101BB000E08AFF1F0000000002030904F88AFF1FEB
:101BC0000000000003030904108BFF1F0000000049
:101BD00000000000000000000000000000151915C2
:101BE000F8B500BFF8BC08BC9E4670472D19000030
:041BF00035040000B8
:041BF400F8B500BF81
:101BF80038B50A4B0A4DD3F8A040C3F8A04005E019
:101C080055F823309847631E1C4005D094FAA4F376
:101C1800B3FA83F3002CF3D138BD00BF00D00440E1
:101C2800748AFF1F38B50A4B0A4DD3F8A040C3F891
:101C3800A04005E055F823309847631E1C4005D0A6
:101C480094FAA4F3B3FA83F3002CF3D138BD00BFA0
:101C580000C00440548AFF1F38B50A4B0A4DD3F818
:101C6800A040C3F8A04005E055F823309847631E0C
:101C78001C4005D094FAA4F3B3FA83F3002CF3D1F3
:101C880038BD00BF00B00440248AFF1F38B50A4B96
:101C98000A4DD3F8A040C3F8A04005E055F823301A
:101CA8009847631E1C4005D094FAA4F3B3FA83F353
:101CB800002CF3D138BD00BF00A00440D489FF1F19
:101CC80038B50A4B0A4DD3F8A040C3F8A04005E048
:101CD80055F823309847631E1C4005D094FAA4F3A6
:101CE800B3FA83F3002CF3D138BD00BF0090044051
:101CF8009C89FF1F441A000000000000E803000050
:101D080000000000006006401C1A000000000000EF
:101D180000000000000000000000000000000000BB
:101D280000000000000000000000000000000000AB
:101D3800000000000000000000000000000000009B
:101D4800000000000000000000000000000000008B
:101D5800000000000000000000000000000000007B
:101D6800000000000000000000000000000000006B
:101D7800000000000000000000000000000000005B
:101D8800000000000000000000000000000000004B
:101D9800000000000000000000000000000000003B
:101DA800000000000000000000000000000000002B
:101DB800441A000000000000E803000000000000D2
:101DC80000700640FC190000000000000000000040
:101DD80000000000000000000000000000000000FB
:101DE80000000000000000000000000000000000EB
:101DF80000000000000000000000000000000000DB
:101E080000000000000000000000000000000000CA
:101E180000000000000000000000000000000000BA
:101E280000000000000000000000000000000000AA
:101E3800000000000000000000000000000000009A
:101E4800000000000000000000000000000000008A
:101E5800000000000000000000000000000000007A
:101E68000000000000000000000000000A0400005C
:101E7800E9090000E9090000E9090000E909000092
:101E8800E9090000E9090000E9090000E909000082
:101E9800E9090000E9090000E9090000E909000072
:101EA800E9090000E9090000E9090000E909000062
:101EB800E9090000E9090000E9090000E909000052
:101EC800E9090000E9090000E9090000E909000042
:101ED800E9090000E9090000E9090000E909000032
:101EE800E9090000E9090000E9090000E909000022
:101EF800E9090000E9090000E9090000E909000012
:101F0800E9090000E9090000E9090000E909000001
:101F1800E9090000E9090000E9090000E9090000F1
:101F2800E9090000E9090000E9090000E9090000E1
:101F3800E9090000E9090000E9090000E9090000D1
:101F4800E9090000E9090000E9090000E9090000C1
:101F5800FFFFFFFF0100000009024300020100C06B
:101F680032090400000102020100052400100105E5
:101F78002401010104240206052406000107058244
:101F88000310004009040100020A000000070503CD
:101F98000240000007058402400000001201100101
:101FA80002000040C016830475020102030100000C
:101FB8000403090418035400650065006E007300EB
:101FC80079006400750069006E006F001603550003
:101FD8005300420020005300650072006900610050
:101FE8006C0000000C03000000000000000000006E
:101FF8000000000000000000000000007C8CFF1FB3
:00000001FF
